{
  "_format": "hh-sol-artifact-1",
  "contractName": "Platform",
  "sourceName": "contracts/Platform.sol",
  "abi": [
    {
      "inputs": [
        {
          "internalType": "address payable",
          "name": "artist",
          "type": "address"
        }
      ],
      "name": "addArtist",
      "outputs": [],
      "stateMutability": "nonpayable",
      "type": "function"
    },
    {
      "inputs": [
        {
          "internalType": "address",
          "name": "",
          "type": "address"
        }
      ],
      "name": "artistInteractions",
      "outputs": [
        {
          "internalType": "uint256",
          "name": "",
          "type": "uint256"
        }
      ],
      "stateMutability": "view",
      "type": "function"
    },
    {
      "inputs": [],
      "name": "deposit",
      "outputs": [],
      "stateMutability": "payable",
      "type": "function"
    },
    {
      "inputs": [],
      "name": "distributeFunds",
      "outputs": [],
      "stateMutability": "payable",
      "type": "function"
    },
    {
      "inputs": [],
      "name": "getContractBalance",
      "outputs": [
        {
          "internalType": "uint256",
          "name": "",
          "type": "uint256"
        }
      ],
      "stateMutability": "view",
      "type": "function"
    },
    {
      "inputs": [
        {
          "internalType": "address",
          "name": "artist",
          "type": "address"
        }
      ],
      "name": "incrementArtistInteraction",
      "outputs": [],
      "stateMutability": "nonpayable",
      "type": "function"
    },
    {
      "inputs": [],
      "name": "totalInteractions",
      "outputs": [
        {
          "internalType": "uint256",
          "name": "",
          "type": "uint256"
        }
      ],
      "stateMutability": "view",
      "type": "function"
    }
  ],
  "bytecode": "0x608060405234801561001057600080fd5b506106b3806100206000396000f3fe6080604052600436106100705760003560e01c8063761a64791161004e578063761a6479146100d35780637841b703146100fc578063a843651e14610139578063d0e30db01461016457610070565b80633a6a4d2e146100755780634d287f2b1461007f5780636f9fb98a146100a8575b600080fd5b61007d61016e565b005b34801561008b57600080fd5b506100a660048036038101906100a19190610469565b6102c3565b005b3480156100b457600080fd5b506100bd61036e565b6040516100ca91906104af565b60405180910390f35b3480156100df57600080fd5b506100fa60048036038101906100f59190610508565b610376565b005b34801561010857600080fd5b50610123600480360381019061011e9190610508565b6103e6565b60405161013091906104af565b60405180910390f35b34801561014557600080fd5b5061014e6103fe565b60405161015b91906104af565b60405180910390f35b61016c610404565b005b60006002544761017e9190610593565b905060005b6000805490508110156102bf57600082600160008085815481106101aa576101a96105c4565b5b9060005260206000200160009054906101000a900473ffffffffffffffffffffffffffffffffffffffff1673ffffffffffffffffffffffffffffffffffffffff1673ffffffffffffffffffffffffffffffffffffffff1681526020019081526020016000205461021a91906105f3565b905060008111156102ab5760008281548110610239576102386105c4565b5b9060005260206000200160009054906101000a900473ffffffffffffffffffffffffffffffffffffffff1673ffffffffffffffffffffffffffffffffffffffff166108fc829081150290604051600060405180830381858888f193505050501580156102a9573d6000803e3d6000fd5b505b5080806102b790610635565b915050610183565b5050565b6000600160008373ffffffffffffffffffffffffffffffffffffffff1673ffffffffffffffffffffffffffffffffffffffff168152602001908152602001600020819055506000819080600181540180825580915050600190039060005260206000200160009091909190916101000a81548173ffffffffffffffffffffffffffffffffffffffff021916908373ffffffffffffffffffffffffffffffffffffffff16021790555050565b600047905090565b600160008273ffffffffffffffffffffffffffffffffffffffff1673ffffffffffffffffffffffffffffffffffffffff16815260200190815260200160002060008154809291906103c690610635565b9190505550600260008154809291906103de90610635565b919050555050565b60016020528060005260406000206000915090505481565b60025481565b565b600080fd5b600073ffffffffffffffffffffffffffffffffffffffff82169050919050565b60006104368261040b565b9050919050565b6104468161042b565b811461045157600080fd5b50565b6000813590506104638161043d565b92915050565b60006020828403121561047f5761047e610406565b5b600061048d84828501610454565b91505092915050565b6000819050919050565b6104a981610496565b82525050565b60006020820190506104c460008301846104a0565b92915050565b60006104d58261040b565b9050919050565b6104e5816104ca565b81146104f057600080fd5b50565b600081359050610502816104dc565b92915050565b60006020828403121561051e5761051d610406565b5b600061052c848285016104f3565b91505092915050565b7f4e487b7100000000000000000000000000000000000000000000000000000000600052601260045260246000fd5b7f4e487b7100000000000000000000000000000000000000000000000000000000600052601160045260246000fd5b600061059e82610496565b91506105a983610496565b9250826105b9576105b8610535565b5b828204905092915050565b7f4e487b7100000000000000000000000000000000000000000000000000000000600052603260045260246000fd5b60006105fe82610496565b915061060983610496565b925082820261061781610496565b9150828204841483151761062e5761062d610564565b5b5092915050565b600061064082610496565b91507fffffffffffffffffffffffffffffffffffffffffffffffffffffffffffffffff820361067257610671610564565b5b60018201905091905056fea2646970667358221220953137ddaa4b6e8651d7cd09fb76b2c25c7995c8c85ee8525d9faa1b3a99466464736f6c63430008110033",
  "linkReferences": {},
  "deployedLinkReferences": {}
}